{"abi":[{"type":"constructor","inputs":[{"name":"_nft","type":"address","internalType":"contract ZebNFT"}],"stateMutability":"nonpayable"},{"type":"function","name":"auctions","inputs":[{"name":"","type":"uint256","internalType":"uint256"}],"outputs":[{"name":"seller","type":"address","internalType":"address"},{"name":"startTime","type":"uint256","internalType":"uint256"},{"name":"endTime","type":"uint256","internalType":"uint256"},{"name":"highestBid","type":"uint256","internalType":"uint256"},{"name":"highestBidder","type":"address","internalType":"address"},{"name":"active","type":"bool","internalType":"bool"}],"stateMutability":"view"},{"type":"function","name":"buyNow","inputs":[{"name":"tokenId","type":"uint256","internalType":"uint256"}],"outputs":[],"stateMutability":"payable"},{"type":"function","name":"cancelListing","inputs":[{"name":"tokenId","type":"uint256","internalType":"uint256"}],"outputs":[],"stateMutability":"nonpayable"},{"type":"function","name":"closeAuction","inputs":[{"name":"tokenId","type":"uint256","internalType":"uint256"}],"outputs":[],"stateMutability":"nonpayable"},{"type":"function","name":"createAuction","inputs":[{"name":"tokenId","type":"uint256","internalType":"uint256"},{"name":"startTime","type":"uint256","internalType":"uint256"},{"name":"endTime","type":"uint256","internalType":"uint256"}],"outputs":[],"stateMutability":"nonpayable"},{"type":"function","name":"listForSale","inputs":[{"name":"tokenId","type":"uint256","internalType":"uint256"},{"name":"price","type":"uint256","internalType":"uint256"}],"outputs":[],"stateMutability":"nonpayable"},{"type":"function","name":"listings","inputs":[{"name":"","type":"uint256","internalType":"uint256"}],"outputs":[{"name":"seller","type":"address","internalType":"address"},{"name":"price","type":"uint256","internalType":"uint256"},{"name":"timestamp","type":"uint256","internalType":"uint256"}],"stateMutability":"view"},{"type":"function","name":"nft","inputs":[],"outputs":[{"name":"","type":"address","internalType":"contract ZebNFT"}],"stateMutability":"view"},{"type":"function","name":"placeBid","inputs":[{"name":"tokenId","type":"uint256","internalType":"uint256"}],"outputs":[],"stateMutability":"payable"},{"type":"event","name":"ArtworkBought","inputs":[{"name":"tokenId","type":"uint256","indexed":false,"internalType":"uint256"},{"name":"buyer","type":"address","indexed":false,"internalType":"address"},{"name":"price","type":"uint256","indexed":false,"internalType":"uint256"}],"anonymous":false},{"type":"event","name":"ArtworkListed","inputs":[{"name":"tokenId","type":"uint256","indexed":false,"internalType":"uint256"},{"name":"seller","type":"address","indexed":false,"internalType":"address"},{"name":"price","type":"uint256","indexed":false,"internalType":"uint256"}],"anonymous":false},{"type":"event","name":"AuctionBid","inputs":[{"name":"tokenId","type":"uint256","indexed":false,"internalType":"uint256"},{"name":"bidder","type":"address","indexed":false,"internalType":"address"},{"name":"amount","type":"uint256","indexed":false,"internalType":"uint256"}],"anonymous":false},{"type":"event","name":"AuctionCreated","inputs":[{"name":"tokenId","type":"uint256","indexed":false,"internalType":"uint256"},{"name":"seller","type":"address","indexed":false,"internalType":"address"},{"name":"startTime","type":"uint256","indexed":false,"internalType":"uint256"},{"name":"endTime","type":"uint256","indexed":false,"internalType":"uint256"}],"anonymous":false},{"type":"event","name":"AuctionEnded","inputs":[{"name":"tokenId","type":"uint256","indexed":false,"internalType":"uint256"},{"name":"winner","type":"address","indexed":false,"internalType":"address"},{"name":"amount","type":"uint256","indexed":false,"internalType":"uint256"}],"anonymous":false},{"type":"event","name":"ListingCancelled","inputs":[{"name":"tokenId","type":"uint256","indexed":false,"internalType":"uint256"},{"name":"seller","type":"address","indexed":false,"internalType":"address"}],"anonymous":false},{"type":"error","name":"AuctionNotFound","inputs":[]},{"type":"error","name":"InvalidAuction","inputs":[]},{"type":"error","name":"InvalidOffer","inputs":[]},{"type":"error","name":"InvalidTime","inputs":[]},{"type":"error","name":"ListingNotFound","inputs":[]},{"type":"error","name":"NotOwner","inputs":[]},{"type":"error","name":"ReentrancyGuardReentrantCall","inputs":[]}],"bytecode":{"object":"0x608060405234801561000f575f5ffd5b50604051611a32380380611a328339818101604052810190610031919061013b565b600161004f61004461009a60201b60201c565b6100c360201b60201c565b5f0181905550805f5f6101000a81548173ffffffffffffffffffffffffffffffffffffffff021916908373ffffffffffffffffffffffffffffffffffffffff16021790555050610166565b5f7f9b779b17422d0df92223018b32b4d1fa46e071723d6817e2486d003becc55f005f1b905090565b5f819050919050565b5f5ffd5b5f73ffffffffffffffffffffffffffffffffffffffff82169050919050565b5f6100f9826100d0565b9050919050565b5f61010a826100ef565b9050919050565b61011a81610100565b8114610124575f5ffd5b50565b5f8151905061013581610111565b92915050565b5f602082840312156101505761014f6100cc565b5b5f61015d84828501610127565b91505092915050565b6118bf806101735f395ff3fe608060405260043610610085575f3560e01c8063571a26a011610058578063571a26a01461011f5780639979ef4514610160578063cda4beef1461017c578063de74e57b146101a4578063e80d7fec146101e257610085565b806308a0f32f14610089578063236ed8f3146100a5578063305a67a8146100cd57806347ccca02146100f5575b5f5ffd5b6100a3600480360381019061009e91906113c4565b61020a565b005b3480156100b0575f5ffd5b506100cb60048036038101906100c691906113c4565b610509565b005b3480156100d8575f5ffd5b506100f360048036038101906100ee91906113c4565b610846565b005b348015610100575f5ffd5b506101096109b9565b6040516101169190611469565b60405180910390f35b34801561012a575f5ffd5b50610145600480360381019061014091906113c4565b6109dd565b604051610157969594939291906114cb565b60405180910390f35b61017a600480360381019061017591906113c4565b610a60565b005b348015610187575f5ffd5b506101a2600480360381019061019d919061152a565b610d06565b005b3480156101af575f5ffd5b506101ca60048036038101906101c591906113c4565b61100e565b6040516101d99392919061157a565b60405180910390f35b3480156101ed575f5ffd5b50610208600480360381019061020391906115af565b611053565b005b6102126112c2565b5f60015f8381526020019081526020015f206040518060600160405290815f82015f9054906101000a900473ffffffffffffffffffffffffffffffffffffffff1673ffffffffffffffffffffffffffffffffffffffff1673ffffffffffffffffffffffffffffffffffffffff1681526020016001820154815260200160028201548152505090505f73ffffffffffffffffffffffffffffffffffffffff16815f015173ffffffffffffffffffffffffffffffffffffffff1603610301576040517f7e43e63800000000000000000000000000000000000000000000000000000000815260040160405180910390fd5b806020015134101561033f576040517f2ee3980200000000000000000000000000000000000000000000000000000000815260040160405180910390fd5b5f815f015173ffffffffffffffffffffffffffffffffffffffff16826020015160405161036b9061161a565b5f6040518083038185875af1925050503d805f81146103a5576040519150601f19603f3d011682016040523d82523d5f602084013e6103aa565b606091505b50509050806103ee576040517f08c379a00000000000000000000000000000000000000000000000000000000081526004016103e590611688565b60405180910390fd5b5f5f9054906101000a900473ffffffffffffffffffffffffffffffffffffffff1673ffffffffffffffffffffffffffffffffffffffff16639036c05084336040518363ffffffff1660e01b81526004016104499291906116a6565b5f604051808303815f87803b158015610460575f5ffd5b505af1158015610472573d5f5f3e3d5ffd5b5050505060015f8481526020019081526020015f205f5f82015f6101000a81549073ffffffffffffffffffffffffffffffffffffffff0219169055600182015f9055600282015f905550507f481b1c92e2b069d9dd1ef36c99747924af7bb6cdea3c7d90b876815808dbb633833384602001516040516104f4939291906116cd565b60405180910390a150506105066112e4565b50565b6105116112c2565b5f60025f8381526020019081526020015f2090508060040160149054906101000a900460ff1661056d576040517f0e28b8be00000000000000000000000000000000000000000000000000000000815260040160405180910390fd5b80600201544210156105ab576040517f6f7eac2600000000000000000000000000000000000000000000000000000000815260040160405180910390fd5b5f8160040160146101000a81548160ff0219169083151502179055505f73ffffffffffffffffffffffffffffffffffffffff16816004015f9054906101000a900473ffffffffffffffffffffffffffffffffffffffff1673ffffffffffffffffffffffffffffffffffffffff16146107fe575f5f9054906101000a900473ffffffffffffffffffffffffffffffffffffffff1673ffffffffffffffffffffffffffffffffffffffff16639036c05083836004015f9054906101000a900473ffffffffffffffffffffffffffffffffffffffff166040518363ffffffff1660e01b815260040161069b9291906116a6565b5f604051808303815f87803b1580156106b2575f5ffd5b505af11580156106c4573d5f5f3e3d5ffd5b505050505f815f015f9054906101000a900473ffffffffffffffffffffffffffffffffffffffff1673ffffffffffffffffffffffffffffffffffffffff1682600301546040516107139061161a565b5f6040518083038185875af1925050503d805f811461074d576040519150601f19603f3d011682016040523d82523d5f602084013e610752565b606091505b5050905080610796576040517f08c379a000000000000000000000000000000000000000000000000000000000815260040161078d90611688565b60405180910390fd5b7fd2aa34a4fdbbc6dff6a3e56f46e0f3ae2a31d7785ff3487aa5c95c642acea50183836004015f9054906101000a900473ffffffffffffffffffffffffffffffffffffffff1684600301546040516107f0939291906116cd565b60405180910390a15061083a565b7fd2aa34a4fdbbc6dff6a3e56f46e0f3ae2a31d7785ff3487aa5c95c642acea501825f5f6040516108319392919061173b565b60405180910390a15b506108436112e4565b50565b5f60015f8381526020019081526020015f206040518060600160405290815f82015f9054906101000a900473ffffffffffffffffffffffffffffffffffffffff1673ffffffffffffffffffffffffffffffffffffffff1673ffffffffffffffffffffffffffffffffffffffff1681526020016001820154815260200160028201548152505090503373ffffffffffffffffffffffffffffffffffffffff16815f015173ffffffffffffffffffffffffffffffffffffffff1614610935576040517f30cd747100000000000000000000000000000000000000000000000000000000815260040160405180910390fd5b60015f8381526020019081526020015f205f5f82015f6101000a81549073ffffffffffffffffffffffffffffffffffffffff0219169055600182015f9055600282015f905550507f8e25282255ab31897df2b0456bb993ac7f84d376861aefd84901d2d63a7428a282336040516109ad9291906116a6565b60405180910390a15050565b5f5f9054906101000a900473ffffffffffffffffffffffffffffffffffffffff1681565b6002602052805f5260405f205f91509050805f015f9054906101000a900473ffffffffffffffffffffffffffffffffffffffff1690806001015490806002015490806003015490806004015f9054906101000a900473ffffffffffffffffffffffffffffffffffffffff16908060040160149054906101000a900460ff16905086565b610a686112c2565b5f60025f8381526020019081526020015f2090508060040160149054906101000a900460ff16610ac4576040517f0e28b8be00000000000000000000000000000000000000000000000000000000815260040160405180910390fd5b8060010154421080610ad95750806002015442115b15610b10576040517f6f7eac2600000000000000000000000000000000000000000000000000000000815260040160405180910390fd5b80600301543411610b4d576040517f2ee3980200000000000000000000000000000000000000000000000000000000815260040160405180910390fd5b5f73ffffffffffffffffffffffffffffffffffffffff16816004015f9054906101000a900473ffffffffffffffffffffffffffffffffffffffff1673ffffffffffffffffffffffffffffffffffffffff1614610c74575f816004015f9054906101000a900473ffffffffffffffffffffffffffffffffffffffff1673ffffffffffffffffffffffffffffffffffffffff168260030154604051610bef9061161a565b5f6040518083038185875af1925050503d805f8114610c29576040519150601f19603f3d011682016040523d82523d5f602084013e610c2e565b606091505b5050905080610c72576040517f08c379a0000000000000000000000000000000000000000000000000000000008152600401610c69906117ba565b60405180910390fd5b505b34816003018190555033816004015f6101000a81548173ffffffffffffffffffffffffffffffffffffffff021916908373ffffffffffffffffffffffffffffffffffffffff1602179055507fb8d756f2d1da4663767eb4d559780ace84f2f65a421a60ddcb47e8b2e5d2fd26823334604051610cf2939291906116cd565b60405180910390a150610d036112e4565b50565b3373ffffffffffffffffffffffffffffffffffffffff165f5f9054906101000a900473ffffffffffffffffffffffffffffffffffffffff1673ffffffffffffffffffffffffffffffffffffffff16636352211e856040518263ffffffff1660e01b8152600401610d7691906117d8565b602060405180830381865afa158015610d91573d5f5f3e3d5ffd5b505050506040513d601f19601f82011682018060405250810190610db5919061181b565b73ffffffffffffffffffffffffffffffffffffffff1614610e02576040517f30cd747100000000000000000000000000000000000000000000000000000000815260040160405180910390fd5b818111610e3b576040517f6f7eac2600000000000000000000000000000000000000000000000000000000815260040160405180910390fd5b60025f8481526020019081526020015f2060040160149054906101000a900460ff1615610e94576040517f2156216000000000000000000000000000000000000000000000000000000000815260040160405180910390fd5b6040518060c001604052803373ffffffffffffffffffffffffffffffffffffffff1681526020018381526020018281526020015f81526020015f73ffffffffffffffffffffffffffffffffffffffff1681526020016001151581525060025f8581526020019081526020015f205f820151815f015f6101000a81548173ffffffffffffffffffffffffffffffffffffffff021916908373ffffffffffffffffffffffffffffffffffffffff1602179055506020820151816001015560408201518160020155606082015181600301556080820151816004015f6101000a81548173ffffffffffffffffffffffffffffffffffffffff021916908373ffffffffffffffffffffffffffffffffffffffff16021790555060a08201518160040160146101000a81548160ff0219169083151502179055509050507fc9050d42180a61cb0d9ebb8ad118b62fe6eab12cf12ff752c4a0cc7da9ddf627833384846040516110019493929190611846565b60405180910390a1505050565b6001602052805f5260405f205f91509050805f015f9054906101000a900473ffffffffffffffffffffffffffffffffffffffff16908060010154908060020154905083565b3373ffffffffffffffffffffffffffffffffffffffff165f5f9054906101000a900473ffffffffffffffffffffffffffffffffffffffff1673ffffffffffffffffffffffffffffffffffffffff16636352211e846040518263ffffffff1660e01b81526004016110c391906117d8565b602060405180830381865afa1580156110de573d5f5f3e3d5ffd5b505050506040513d601f19601f82011682018060405250810190611102919061181b565b73ffffffffffffffffffffffffffffffffffffffff161461114f576040517f30cd747100000000000000000000000000000000000000000000000000000000815260040160405180910390fd5b5f73ffffffffffffffffffffffffffffffffffffffff1660015f8481526020019081526020015f205f015f9054906101000a900473ffffffffffffffffffffffffffffffffffffffff1673ffffffffffffffffffffffffffffffffffffffff16146111e6576040517f7e43e63800000000000000000000000000000000000000000000000000000000815260040160405180910390fd5b60405180606001604052803373ffffffffffffffffffffffffffffffffffffffff1681526020018281526020014281525060015f8481526020019081526020015f205f820151815f015f6101000a81548173ffffffffffffffffffffffffffffffffffffffff021916908373ffffffffffffffffffffffffffffffffffffffff16021790555060208201518160010155604082015181600201559050507fe984fd947f10b44cead53ff9cb7c3442cd715e26a210a98baadaff28596958c78233836040516112b6939291906116cd565b60405180910390a15050565b6112ca6112fe565b60026112dc6112d761133f565b611368565b5f0181905550565b60016112f66112f161133f565b611368565b5f0181905550565b611306611371565b1561133d576040517f3ee5aeb500000000000000000000000000000000000000000000000000000000815260040160405180910390fd5b565b5f7f9b779b17422d0df92223018b32b4d1fa46e071723d6817e2486d003becc55f005f1b905090565b5f819050919050565b5f600261138461137f61133f565b611368565b5f015414905090565b5f5ffd5b5f819050919050565b6113a381611391565b81146113ad575f5ffd5b50565b5f813590506113be8161139a565b92915050565b5f602082840312156113d9576113d861138d565b5b5f6113e6848285016113b0565b91505092915050565b5f73ffffffffffffffffffffffffffffffffffffffff82169050919050565b5f819050919050565b5f61143161142c611427846113ef565b61140e565b6113ef565b9050919050565b5f61144282611417565b9050919050565b5f61145382611438565b9050919050565b61146381611449565b82525050565b5f60208201905061147c5f83018461145a565b92915050565b5f61148c826113ef565b9050919050565b61149c81611482565b82525050565b6114ab81611391565b82525050565b5f8115159050919050565b6114c5816114b1565b82525050565b5f60c0820190506114de5f830189611493565b6114eb60208301886114a2565b6114f860408301876114a2565b61150560608301866114a2565b6115126080830185611493565b61151f60a08301846114bc565b979650505050505050565b5f5f5f606084860312156115415761154061138d565b5b5f61154e868287016113b0565b935050602061155f868287016113b0565b9250506040611570868287016113b0565b9150509250925092565b5f60608201905061158d5f830186611493565b61159a60208301856114a2565b6115a760408301846114a2565b949350505050565b5f5f604083850312156115c5576115c461138d565b5b5f6115d2858286016113b0565b92505060206115e3858286016113b0565b9150509250929050565b5f81905092915050565b50565b5f6116055f836115ed565b9150611610826115f7565b5f82019050919050565b5f611624826115fa565b9150819050919050565b5f82825260208201905092915050565b7f455448207472616e73666572206661696c6564000000000000000000000000005f82015250565b5f61167260138361162e565b915061167d8261163e565b602082019050919050565b5f6020820190508181035f83015261169f81611666565b9050919050565b5f6040820190506116b95f8301856114a2565b6116c66020830184611493565b9392505050565b5f6060820190506116e05f8301866114a2565b6116ed6020830185611493565b6116fa60408301846114a2565b949350505050565b5f819050919050565b5f61172561172061171b84611702565b61140e565b611391565b9050919050565b6117358161170b565b82525050565b5f60608201905061174e5f8301866114a2565b61175b6020830185611493565b611768604083018461172c565b949350505050565b7f526566756e64206661696c6564000000000000000000000000000000000000005f82015250565b5f6117a4600d8361162e565b91506117af82611770565b602082019050919050565b5f6020820190508181035f8301526117d181611798565b9050919050565b5f6020820190506117eb5f8301846114a2565b92915050565b6117fa81611482565b8114611804575f5ffd5b50565b5f81519050611815816117f1565b92915050565b5f602082840312156118305761182f61138d565b5b5f61183d84828501611807565b91505092915050565b5f6080820190506118595f8301876114a2565b6118666020830186611493565b61187360408301856114a2565b61188060608301846114a2565b9594505050505056fea264697066735822122058517349cd065884d13a6f35dab2cc3465c45088c42e7b33b49513b0e1a1aa7c64736f6c63430008210033","linkReferences":{}},"methodIdentifiers":{"auctions(uint256)":"571a26a0","buyNow(uint256)":"08a0f32f","cancelListing(uint256)":"305a67a8","closeAuction(uint256)":"236ed8f3","createAuction(uint256,uint256,uint256)":"cda4beef","listForSale(uint256,uint256)":"e80d7fec","listings(uint256)":"de74e57b","nft()":"47ccca02","placeBid(uint256)":"9979ef45"},"id":46}