{"abi":[{"type":"constructor","inputs":[{"name":"initialOwner","type":"address","internalType":"address"}],"stateMutability":"nonpayable"},{"type":"function","name":"approve","inputs":[{"name":"to","type":"address","internalType":"address"},{"name":"tokenId","type":"uint256","internalType":"uint256"}],"outputs":[],"stateMutability":"nonpayable"},{"type":"function","name":"artworks","inputs":[{"name":"","type":"uint256","internalType":"uint256"}],"outputs":[{"name":"title","type":"string","internalType":"string"},{"name":"uri","type":"string","internalType":"string"},{"name":"hash","type":"bytes32","internalType":"bytes32"},{"name":"creator","type":"address","internalType":"address"},{"name":"currentOwner","type":"address","internalType":"address"},{"name":"timestamp","type":"uint256","internalType":"uint256"}],"stateMutability":"view"},{"type":"function","name":"balanceOf","inputs":[{"name":"owner","type":"address","internalType":"address"}],"outputs":[{"name":"","type":"uint256","internalType":"uint256"}],"stateMutability":"view"},{"type":"function","name":"getApproved","inputs":[{"name":"tokenId","type":"uint256","internalType":"uint256"}],"outputs":[{"name":"","type":"address","internalType":"address"}],"stateMutability":"view"},{"type":"function","name":"getCreator","inputs":[{"name":"tokenId","type":"uint256","internalType":"uint256"}],"outputs":[{"name":"","type":"address","internalType":"address"}],"stateMutability":"view"},{"type":"function","name":"getOwner","inputs":[{"name":"tokenId","type":"uint256","internalType":"uint256"}],"outputs":[{"name":"","type":"address","internalType":"address"}],"stateMutability":"view"},{"type":"function","name":"isApprovedForAll","inputs":[{"name":"owner","type":"address","internalType":"address"},{"name":"operator","type":"address","internalType":"address"}],"outputs":[{"name":"","type":"bool","internalType":"bool"}],"stateMutability":"view"},{"type":"function","name":"name","inputs":[],"outputs":[{"name":"","type":"string","internalType":"string"}],"stateMutability":"view"},{"type":"function","name":"nextTokenId","inputs":[],"outputs":[{"name":"","type":"uint256","internalType":"uint256"}],"stateMutability":"view"},{"type":"function","name":"owner","inputs":[],"outputs":[{"name":"","type":"address","internalType":"address"}],"stateMutability":"view"},{"type":"function","name":"ownerOf","inputs":[{"name":"tokenId","type":"uint256","internalType":"uint256"}],"outputs":[{"name":"","type":"address","internalType":"address"}],"stateMutability":"view"},{"type":"function","name":"registerArtwork","inputs":[{"name":"title","type":"string","internalType":"string"},{"name":"uri","type":"string","internalType":"string"},{"name":"hash","type":"bytes32","internalType":"bytes32"}],"outputs":[{"name":"","type":"uint256","internalType":"uint256"}],"stateMutability":"nonpayable"},{"type":"function","name":"renounceOwnership","inputs":[],"outputs":[],"stateMutability":"nonpayable"},{"type":"function","name":"safeTransferFrom","inputs":[{"name":"from","type":"address","internalType":"address"},{"name":"to","type":"address","internalType":"address"},{"name":"tokenId","type":"uint256","internalType":"uint256"}],"outputs":[],"stateMutability":"nonpayable"},{"type":"function","name":"safeTransferFrom","inputs":[{"name":"from","type":"address","internalType":"address"},{"name":"to","type":"address","internalType":"address"},{"name":"tokenId","type":"uint256","internalType":"uint256"},{"name":"data","type":"bytes","internalType":"bytes"}],"outputs":[],"stateMutability":"nonpayable"},{"type":"function","name":"setApprovalForAll","inputs":[{"name":"operator","type":"address","internalType":"address"},{"name":"approved","type":"bool","internalType":"bool"}],"outputs":[],"stateMutability":"nonpayable"},{"type":"function","name":"supportsInterface","inputs":[{"name":"interfaceId","type":"bytes4","internalType":"bytes4"}],"outputs":[{"name":"","type":"bool","internalType":"bool"}],"stateMutability":"view"},{"type":"function","name":"symbol","inputs":[],"outputs":[{"name":"","type":"string","internalType":"string"}],"stateMutability":"view"},{"type":"function","name":"tokenURI","inputs":[{"name":"tokenId","type":"uint256","internalType":"uint256"}],"outputs":[{"name":"","type":"string","internalType":"string"}],"stateMutability":"view"},{"type":"function","name":"transferFrom","inputs":[{"name":"from","type":"address","internalType":"address"},{"name":"to","type":"address","internalType":"address"},{"name":"tokenId","type":"uint256","internalType":"uint256"}],"outputs":[],"stateMutability":"nonpayable"},{"type":"function","name":"transferNFT","inputs":[{"name":"tokenId","type":"uint256","internalType":"uint256"},{"name":"newOwner","type":"address","internalType":"address"}],"outputs":[],"stateMutability":"nonpayable"},{"type":"function","name":"transferOwnership","inputs":[{"name":"newOwner","type":"address","internalType":"address"}],"outputs":[],"stateMutability":"nonpayable"},{"type":"event","name":"Approval","inputs":[{"name":"owner","type":"address","indexed":true,"internalType":"address"},{"name":"approved","type":"address","indexed":true,"internalType":"address"},{"name":"tokenId","type":"uint256","indexed":true,"internalType":"uint256"}],"anonymous":false},{"type":"event","name":"ApprovalForAll","inputs":[{"name":"owner","type":"address","indexed":true,"internalType":"address"},{"name":"operator","type":"address","indexed":true,"internalType":"address"},{"name":"approved","type":"bool","indexed":false,"internalType":"bool"}],"anonymous":false},{"type":"event","name":"ArtworkRegistered","inputs":[{"name":"tokenId","type":"uint256","indexed":true,"internalType":"uint256"},{"name":"title","type":"string","indexed":false,"internalType":"string"},{"name":"uri","type":"string","indexed":false,"internalType":"string"},{"name":"hash","type":"bytes32","indexed":false,"internalType":"bytes32"},{"name":"creator","type":"address","indexed":true,"internalType":"address"},{"name":"timestamp","type":"uint256","indexed":false,"internalType":"uint256"}],"anonymous":false},{"type":"event","name":"BatchMetadataUpdate","inputs":[{"name":"_fromTokenId","type":"uint256","indexed":false,"internalType":"uint256"},{"name":"_toTokenId","type":"uint256","indexed":false,"internalType":"uint256"}],"anonymous":false},{"type":"event","name":"MetadataUpdate","inputs":[{"name":"_tokenId","type":"uint256","indexed":false,"internalType":"uint256"}],"anonymous":false},{"type":"event","name":"OwnershipTransferred","inputs":[{"name":"previousOwner","type":"address","indexed":true,"internalType":"address"},{"name":"newOwner","type":"address","indexed":true,"internalType":"address"}],"anonymous":false},{"type":"event","name":"Transfer","inputs":[{"name":"from","type":"address","indexed":true,"internalType":"address"},{"name":"to","type":"address","indexed":true,"internalType":"address"},{"name":"tokenId","type":"uint256","indexed":true,"internalType":"uint256"}],"anonymous":false},{"type":"error","name":"ArtworkAlreadyExists","inputs":[]},{"type":"error","name":"ArtworkNotFound","inputs":[]},{"type":"error","name":"ERC721IncorrectOwner","inputs":[{"name":"sender","type":"address","internalType":"address"},{"name":"tokenId","type":"uint256","internalType":"uint256"},{"name":"owner","type":"address","internalType":"address"}]},{"type":"error","name":"ERC721InsufficientApproval","inputs":[{"name":"operator","type":"address","internalType":"address"},{"name":"tokenId","type":"uint256","internalType":"uint256"}]},{"type":"error","name":"ERC721InvalidApprover","inputs":[{"name":"approver","type":"address","internalType":"address"}]},{"type":"error","name":"ERC721InvalidOperator","inputs":[{"name":"operator","type":"address","internalType":"address"}]},{"type":"error","name":"ERC721InvalidOwner","inputs":[{"name":"owner","type":"address","internalType":"address"}]},{"type":"error","name":"ERC721InvalidReceiver","inputs":[{"name":"receiver","type":"address","internalType":"address"}]},{"type":"error","name":"ERC721InvalidSender","inputs":[{"name":"sender","type":"address","internalType":"address"}]},{"type":"error","name":"ERC721NonexistentToken","inputs":[{"name":"tokenId","type":"uint256","internalType":"uint256"}]},{"type":"error","name":"OwnableInvalidOwner","inputs":[{"name":"owner","type":"address","internalType":"address"}]},{"type":"error","name":"OwnableUnauthorizedAccount","inputs":[{"name":"account","type":"address","internalType":"address"}]}],"bytecode":{"object":"0x608060405234801561000f575f5ffd5b5060405161362e38038061362e83398181016040528101906100319190610266565b806040518060400160405280600681526020017f5a65624e465400000000000000000000000000000000000000000000000000008152506040518060400160405280600381526020017f5a45420000000000000000000000000000000000000000000000000000000000815250815f90816100ac91906104df565b5080600190816100bc91906104df565b5050505f73ffffffffffffffffffffffffffffffffffffffff168173ffffffffffffffffffffffffffffffffffffffff160361012f575f6040517f1e4fbdf700000000000000000000000000000000000000000000000000000000815260040161012691906105bd565b60405180910390fd5b61013e8161014560201b60201c565b50506105d6565b5f60075f9054906101000a900473ffffffffffffffffffffffffffffffffffffffff1690508160075f6101000a81548173ffffffffffffffffffffffffffffffffffffffff021916908373ffffffffffffffffffffffffffffffffffffffff1602179055508173ffffffffffffffffffffffffffffffffffffffff168173ffffffffffffffffffffffffffffffffffffffff167f8be0079c531659141344cd1fd0a4f28419497f9722a3daafe3b4186f6b6457e060405160405180910390a35050565b5f5ffd5b5f73ffffffffffffffffffffffffffffffffffffffff82169050919050565b5f6102358261020c565b9050919050565b6102458161022b565b811461024f575f5ffd5b50565b5f815190506102608161023c565b92915050565b5f6020828403121561027b5761027a610208565b5b5f61028884828501610252565b91505092915050565b5f81519050919050565b7f4e487b71000000000000000000000000000000000000000000000000000000005f52604160045260245ffd5b7f4e487b71000000000000000000000000000000000000000000000000000000005f52602260045260245ffd5b5f600282049050600182168061030c57607f821691505b60208210810361031f5761031e6102c8565b5b50919050565b5f819050815f5260205f209050919050565b5f6020601f8301049050919050565b5f82821b905092915050565b5f600883026103817fffffffffffffffffffffffffffffffffffffffffffffffffffffffffffffffff82610346565b61038b8683610346565b95508019841693508086168417925050509392505050565b5f819050919050565b5f819050919050565b5f6103cf6103ca6103c5846103a3565b6103ac565b6103a3565b9050919050565b5f819050919050565b6103e8836103b5565b6103fc6103f4826103d6565b848454610352565b825550505050565b5f5f905090565b610413610404565b61041e8184846103df565b505050565b5f5b82811015610444576104395f82840161040b565b600181019050610425565b505050565b601f82111561049757828211156104965761046381610325565b61046c83610337565b61047585610337565b6020861015610482575f90505b80830161049182840382610423565b505050505b5b505050565b5f82821c905092915050565b5f6104b75f198460080261049c565b1980831691505092915050565b5f6104cf83836104a8565b9150826002028217905092915050565b6104e882610291565b67ffffffffffffffff8111156105015761050061029b565b5b61050b82546102f5565b610516828285610449565b5f60209050601f831160018114610547575f8415610535578287015190505b61053f85826104c4565b8655506105a6565b601f19841661055586610325565b5f5b8281101561057c57848901518255600182019150602085019450602081019050610557565b868310156105995784890151610595601f8916826104a8565b8355505b6001600288020188555050505b505050505050565b6105b78161022b565b82525050565b5f6020820190506105d05f8301846105ae565b92915050565b61304b806105e35f395ff3fe608060405234801561000f575f5ffd5b5060043610610140575f3560e01c806375794a3c116100b6578063b88d4fde1161007a578063b88d4fde14610377578063c41a360a14610393578063c87b56dd146103c3578063d48e638a146103f3578063e985e9c514610423578063f2fde38b1461045357610140565b806375794a3c146102e55780638da5cb5b146103035780639036c0501461032157806395d89b411461033d578063a22cb4651461035b57610140565b806342842e0e1161010857806342842e0e146101fa5780634b602673146102165780636352211e1461024b578063650b858e1461027b57806370a08231146102ab578063715018a6146102db57610140565b806301ffc9a71461014457806306fdde0314610174578063081812fc14610192578063095ea7b3146101c257806323b872dd146101de575b5f5ffd5b61015e60048036038101906101599190612336565b61046f565b60405161016b919061237b565b60405180910390f35b61017c6104cf565b6040516101899190612404565b60405180910390f35b6101ac60048036038101906101a79190612457565b61055e565b6040516101b991906124c1565b60405180910390f35b6101dc60048036038101906101d79190612504565b610579565b005b6101f860048036038101906101f39190612542565b61058f565b005b610214600480360381019061020f9190612542565b61068e565b005b610230600480360381019061022b9190612457565b6106ad565b604051610242969594939291906125b9565b60405180910390f35b61026560048036038101906102609190612457565b61082f565b60405161027291906124c1565b60405180910390f35b6102956004803603810190610290919061277c565b610840565b6040516102a29190612804565b60405180910390f35b6102c560048036038101906102c0919061281d565b610a87565b6040516102d29190612804565b60405180910390f35b6102e3610b3d565b005b6102ed610b50565b6040516102fa9190612804565b60405180910390f35b61030b610b56565b60405161031891906124c1565b60405180910390f35b61033b60048036038101906103369190612848565b610b7e565b005b610345610c6b565b6040516103529190612404565b60405180910390f35b610375600480360381019061037091906128b0565b610cfb565b005b610391600480360381019061038c919061298c565b610d11565b005b6103ad60048036038101906103a89190612457565b610d36565b6040516103ba91906124c1565b60405180910390f35b6103dd60048036038101906103d89190612457565b610e0a565b6040516103ea9190612404565b60405180910390f35b61040d60048036038101906104089190612457565b610e86565b60405161041a91906124c1565b60405180910390f35b61043d60048036038101906104389190612a0c565b610f5a565b60405161044a919061237b565b60405180910390f35b61046d6004803603810190610468919061281d565b610fe8565b005b5f634906490660e01b7bffffffffffffffffffffffffffffffffffffffffffffffffffffffff1916827bffffffffffffffffffffffffffffffffffffffffffffffffffffffff191614806104c857506104c78261106c565b5b9050919050565b60605f80546104dd90612a77565b80601f016020809104026020016040519081016040528092919081815260200182805461050990612a77565b80156105545780601f1061052b57610100808354040283529160200191610554565b820191905f5260205f20905b81548152906001019060200180831161053757829003601f168201915b5050505050905090565b5f6105688261114d565b50610572826111d3565b9050919050565b61058b828261058661120c565b611213565b5050565b5f73ffffffffffffffffffffffffffffffffffffffff168273ffffffffffffffffffffffffffffffffffffffff16036105ff575f6040517f64a0ae920000000000000000000000000000000000000000000000000000000081526004016105f691906124c1565b60405180910390fd5b5f610612838361060d61120c565b611225565b90508373ffffffffffffffffffffffffffffffffffffffff168173ffffffffffffffffffffffffffffffffffffffff1614610688578382826040517f64283d7b00000000000000000000000000000000000000000000000000000000815260040161067f93929190612aa7565b60405180910390fd5b50505050565b6106a883838360405180602001604052805f815250610d11565b505050565b6009602052805f5260405f205f91509050805f0180546106cc90612a77565b80601f01602080910402602001604051908101604052809291908181526020018280546106f890612a77565b80156107435780601f1061071a57610100808354040283529160200191610743565b820191905f5260205f20905b81548152906001019060200180831161072657829003601f168201915b50505050509080600101805461075890612a77565b80601f016020809104026020016040519081016040528092919081815260200182805461078490612a77565b80156107cf5780601f106107a6576101008083540402835291602001916107cf565b820191905f5260205f20905b8154815290600101906020018083116107b257829003601f168201915b505050505090806002015490806003015f9054906101000a900473ffffffffffffffffffffffffffffffffffffffff1690806004015f9054906101000a900473ffffffffffffffffffffffffffffffffffffffff16908060050154905086565b5f6108398261114d565b9050919050565b5f600a5f8381526020019081526020015f205f9054906101000a900460ff1615610896576040517f04e1ee8600000000000000000000000000000000000000000000000000000000815260040160405180910390fd5b5f600854905060085f8154809291906108ae90612b09565b91905055506108bd3382611430565b6108c78185611523565b6040518060c001604052808681526020018581526020018481526020013373ffffffffffffffffffffffffffffffffffffffff1681526020013373ffffffffffffffffffffffffffffffffffffffff1681526020014281525060095f8381526020019081526020015f205f820151815f0190816109449190612d01565b50602082015181600101908161095a9190612d01565b50604082015181600201556060820151816003015f6101000a81548173ffffffffffffffffffffffffffffffffffffffff021916908373ffffffffffffffffffffffffffffffffffffffff1602179055506080820151816004015f6101000a81548173ffffffffffffffffffffffffffffffffffffffff021916908373ffffffffffffffffffffffffffffffffffffffff16021790555060a082015181600501559050506001600a5f8581526020019081526020015f205f6101000a81548160ff0219169083151502179055503373ffffffffffffffffffffffffffffffffffffffff16817f8c412850f369950ac1a91cbe8369eabf7caeaa63697a135f2398c21381afaff087878742604051610a749493929190612dd0565b60405180910390a3809150509392505050565b5f5f73ffffffffffffffffffffffffffffffffffffffff168273ffffffffffffffffffffffffffffffffffffffff1603610af8575f6040517f89c62b64000000000000000000000000000000000000000000000000000000008152600401610aef91906124c1565b60405180910390fd5b60035f8373ffffffffffffffffffffffffffffffffffffffff1673ffffffffffffffffffffffffffffffffffffffff1681526020019081526020015f20549050919050565b610b4561157d565b610b4e5f611604565b565b60085481565b5f60075f9054906101000a900473ffffffffffffffffffffffffffffffffffffffff16905090565b5f610b888361082f565b90508073ffffffffffffffffffffffffffffffffffffffff163373ffffffffffffffffffffffffffffffffffffffff161480610bca5750610bc98133610f5a565b5b610c09576040517f08c379a0000000000000000000000000000000000000000000000000000000008152600401610c0090612e6b565b60405180910390fd5b610c148183856116c7565b8160095f8581526020019081526020015f206004015f6101000a81548173ffffffffffffffffffffffffffffffffffffffff021916908373ffffffffffffffffffffffffffffffffffffffff160217905550505050565b606060018054610c7a90612a77565b80601f0160208091040260200160405190810160405280929190818152602001828054610ca690612a77565b8015610cf15780601f10610cc857610100808354040283529160200191610cf1565b820191905f5260205f20905b815481529060010190602001808311610cd457829003601f168201915b5050505050905090565b610d0d610d0661120c565b838361182f565b5050565b610d1c84848461058f565b610d30610d2761120c565b85858585611a08565b50505050565b5f5f73ffffffffffffffffffffffffffffffffffffffff1660095f8481526020019081526020015f206004015f9054906101000a900473ffffffffffffffffffffffffffffffffffffffff1673ffffffffffffffffffffffffffffffffffffffff1603610dcf576040517fd41b558f00000000000000000000000000000000000000000000000000000000815260040160405180910390fd5b60095f8381526020019081526020015f206004015f9054906101000a900473ffffffffffffffffffffffffffffffffffffffff169050919050565b6060610e158261114d565b505f610e1f611bb4565b90505f610e2b84611bca565b90505f825103610e3f578092505050610e81565b5f81511115610e73578181604051602001610e5b929190612ec3565b60405160208183030381529060405292505050610e81565b610e7c84611c6b565b925050505b919050565b5f5f73ffffffffffffffffffffffffffffffffffffffff1660095f8481526020019081526020015f206003015f9054906101000a900473ffffffffffffffffffffffffffffffffffffffff1673ffffffffffffffffffffffffffffffffffffffff1603610f1f576040517fd41b558f00000000000000000000000000000000000000000000000000000000815260040160405180910390fd5b60095f8381526020019081526020015f206003015f9054906101000a900473ffffffffffffffffffffffffffffffffffffffff169050919050565b5f60055f8473ffffffffffffffffffffffffffffffffffffffff1673ffffffffffffffffffffffffffffffffffffffff1681526020019081526020015f205f8373ffffffffffffffffffffffffffffffffffffffff1673ffffffffffffffffffffffffffffffffffffffff1681526020019081526020015f205f9054906101000a900460ff16905092915050565b610ff061157d565b5f73ffffffffffffffffffffffffffffffffffffffff168173ffffffffffffffffffffffffffffffffffffffff1603611060575f6040517f1e4fbdf700000000000000000000000000000000000000000000000000000000815260040161105791906124c1565b60405180910390fd5b61106981611604565b50565b5f7f80ac58cd000000000000000000000000000000000000000000000000000000007bffffffffffffffffffffffffffffffffffffffffffffffffffffffff1916827bffffffffffffffffffffffffffffffffffffffffffffffffffffffff1916148061113657507f5b5e139f000000000000000000000000000000000000000000000000000000007bffffffffffffffffffffffffffffffffffffffffffffffffffffffff1916827bffffffffffffffffffffffffffffffffffffffffffffffffffffffff1916145b80611146575061114582611cd1565b5b9050919050565b5f5f61115883611d3a565b90505f73ffffffffffffffffffffffffffffffffffffffff168173ffffffffffffffffffffffffffffffffffffffff16036111ca57826040517f7e2732890000000000000000000000000000000000000000000000000000000081526004016111c19190612804565b60405180910390fd5b80915050919050565b5f60045f8381526020019081526020015f205f9054906101000a900473ffffffffffffffffffffffffffffffffffffffff169050919050565b5f33905090565b6112208383836001611d73565b505050565b5f5f61123084611d3a565b90505f73ffffffffffffffffffffffffffffffffffffffff168373ffffffffffffffffffffffffffffffffffffffff161461127157611270818486611f32565b5b5f73ffffffffffffffffffffffffffffffffffffffff168173ffffffffffffffffffffffffffffffffffffffff16146112fc576112b05f855f5f611d73565b600160035f8373ffffffffffffffffffffffffffffffffffffffff1673ffffffffffffffffffffffffffffffffffffffff1681526020019081526020015f205f82825403925050819055505b5f73ffffffffffffffffffffffffffffffffffffffff168573ffffffffffffffffffffffffffffffffffffffff161461137b57600160035f8773ffffffffffffffffffffffffffffffffffffffff1673ffffffffffffffffffffffffffffffffffffffff1681526020019081526020015f205f82825401925050819055505b8460025f8681526020019081526020015f205f6101000a81548173ffffffffffffffffffffffffffffffffffffffff021916908373ffffffffffffffffffffffffffffffffffffffff160217905550838573ffffffffffffffffffffffffffffffffffffffff168273ffffffffffffffffffffffffffffffffffffffff167fddf252ad1be2c89b69c2b068fc378daa952ba7f163c4a11628f55a4df523b3ef60405160405180910390a4809150509392505050565b5f73ffffffffffffffffffffffffffffffffffffffff168273ffffffffffffffffffffffffffffffffffffffff16036114a0575f6040517f64a0ae9200000000000000000000000000000000000000000000000000000000815260040161149791906124c1565b60405180910390fd5b5f6114ac83835f611225565b90505f73ffffffffffffffffffffffffffffffffffffffff168173ffffffffffffffffffffffffffffffffffffffff161461151e575f6040517f73c6ac6e00000000000000000000000000000000000000000000000000000000815260040161151591906124c1565b60405180910390fd5b505050565b8060065f8481526020019081526020015f2090816115419190612d01565b507ff8e1a15aba9398e019f0b49df1a4fde98ee17ae345cb5f6b5e2c27f5033e8ce7826040516115719190612804565b60405180910390a15050565b61158561120c565b73ffffffffffffffffffffffffffffffffffffffff166115a3610b56565b73ffffffffffffffffffffffffffffffffffffffff1614611602576115c661120c565b6040517f118cdaa70000000000000000000000000000000000000000000000000000000081526004016115f991906124c1565b60405180910390fd5b565b5f60075f9054906101000a900473ffffffffffffffffffffffffffffffffffffffff1690508160075f6101000a81548173ffffffffffffffffffffffffffffffffffffffff021916908373ffffffffffffffffffffffffffffffffffffffff1602179055508173ffffffffffffffffffffffffffffffffffffffff168173ffffffffffffffffffffffffffffffffffffffff167f8be0079c531659141344cd1fd0a4f28419497f9722a3daafe3b4186f6b6457e060405160405180910390a35050565b5f73ffffffffffffffffffffffffffffffffffffffff168273ffffffffffffffffffffffffffffffffffffffff1603611737575f6040517f64a0ae9200000000000000000000000000000000000000000000000000000000815260040161172e91906124c1565b60405180910390fd5b5f61174383835f611225565b90505f73ffffffffffffffffffffffffffffffffffffffff168173ffffffffffffffffffffffffffffffffffffffff16036117b557816040517f7e2732890000000000000000000000000000000000000000000000000000000081526004016117ac9190612804565b60405180910390fd5b8373ffffffffffffffffffffffffffffffffffffffff168173ffffffffffffffffffffffffffffffffffffffff1614611829578382826040517f64283d7b00000000000000000000000000000000000000000000000000000000815260040161182093929190612aa7565b60405180910390fd5b50505050565b5f73ffffffffffffffffffffffffffffffffffffffff168373ffffffffffffffffffffffffffffffffffffffff160361189f575f6040517fa9fbf51f00000000000000000000000000000000000000000000000000000000815260040161189691906124c1565b60405180910390fd5b5f73ffffffffffffffffffffffffffffffffffffffff168273ffffffffffffffffffffffffffffffffffffffff160361190f57816040517f5b08ba1800000000000000000000000000000000000000000000000000000000815260040161190691906124c1565b60405180910390fd5b8060055f8573ffffffffffffffffffffffffffffffffffffffff1673ffffffffffffffffffffffffffffffffffffffff1681526020019081526020015f205f8473ffffffffffffffffffffffffffffffffffffffff1673ffffffffffffffffffffffffffffffffffffffff1681526020019081526020015f205f6101000a81548160ff0219169083151502179055508173ffffffffffffffffffffffffffffffffffffffff168373ffffffffffffffffffffffffffffffffffffffff167f17307eab39ab6107e8899845ad3d59bd9653f200f220920489ca2b5937696c31836040516119fb919061237b565b60405180910390a3505050565b5f8373ffffffffffffffffffffffffffffffffffffffff163b1115611bad578273ffffffffffffffffffffffffffffffffffffffff1663150b7a02868685856040518563ffffffff1660e01b8152600401611a669493929190612f38565b6020604051808303815f875af1925050508015611aa157506040513d601f19601f82011682018060405250810190611a9e9190612f96565b60015b611b22573d805f8114611acf576040519150601f19603f3d011682016040523d82523d5f602084013e611ad4565b606091505b505f815103611b1a57836040517f64a0ae92000000000000000000000000000000000000000000000000000000008152600401611b1191906124c1565b60405180910390fd5b805160208201fd5b63150b7a0260e01b7bffffffffffffffffffffffffffffffffffffffffffffffffffffffff1916817bffffffffffffffffffffffffffffffffffffffffffffffffffffffff191614611bab57836040517f64a0ae92000000000000000000000000000000000000000000000000000000008152600401611ba291906124c1565b60405180910390fd5b505b5050505050565b606060405180602001604052805f815250905090565b606060065f8381526020019081526020015f208054611be890612a77565b80601f0160208091040260200160405190810160405280929190818152602001828054611c1490612a77565b8015611c5f5780601f10611c3657610100808354040283529160200191611c5f565b820191905f5260205f20905b815481529060010190602001808311611c4257829003601f168201915b50505050509050919050565b6060611c768261114d565b505f611c80611bb4565b90505f815111611c9e5760405180602001604052805f815250611cc9565b80611ca884611ff5565b604051602001611cb9929190612ec3565b6040516020818303038152906040525b915050919050565b5f7f01ffc9a7000000000000000000000000000000000000000000000000000000007bffffffffffffffffffffffffffffffffffffffffffffffffffffffff1916827bffffffffffffffffffffffffffffffffffffffffffffffffffffffff1916149050919050565b5f60025f8381526020019081526020015f205f9054906101000a900473ffffffffffffffffffffffffffffffffffffffff169050919050565b8080611dab57505f73ffffffffffffffffffffffffffffffffffffffff168273ffffffffffffffffffffffffffffffffffffffff1614155b15611edd575f611dba8461114d565b90505f73ffffffffffffffffffffffffffffffffffffffff168373ffffffffffffffffffffffffffffffffffffffff1614158015611e2457508273ffffffffffffffffffffffffffffffffffffffff168173ffffffffffffffffffffffffffffffffffffffff1614155b8015611e375750611e358184610f5a565b155b15611e7957826040517fa9fbf51f000000000000000000000000000000000000000000000000000000008152600401611e7091906124c1565b60405180910390fd5b8115611edb57838573ffffffffffffffffffffffffffffffffffffffff168273ffffffffffffffffffffffffffffffffffffffff167f8c5be1e5ebec7d5bd14f71427d1e84f3dd0314c0f7b2291e5b200ac8c7c3b92560405160405180910390a45b505b8360045f8581526020019081526020015f205f6101000a81548173ffffffffffffffffffffffffffffffffffffffff021916908373ffffffffffffffffffffffffffffffffffffffff16021790555050505050565b611f3d8383836120bf565b611ff0575f73ffffffffffffffffffffffffffffffffffffffff168373ffffffffffffffffffffffffffffffffffffffff1603611fb157806040517f7e273289000000000000000000000000000000000000000000000000000000008152600401611fa89190612804565b60405180910390fd5b81816040517f177e802f000000000000000000000000000000000000000000000000000000008152600401611fe7929190612fc1565b60405180910390fd5b505050565b60605f60016120038461217f565b0190505f8167ffffffffffffffff8111156120215761202061262e565b5b6040519080825280601f01601f1916602001820160405280156120535781602001600182028036833780820191505090505b5090505f82602083010190505b6001156120b4578080600190039150507f3031323334353637383961626364656600000000000000000000000000000000600a86061a8153600a85816120a9576120a8612fe8565b5b0494505f8503612060575b819350505050919050565b5f5f73ffffffffffffffffffffffffffffffffffffffff168373ffffffffffffffffffffffffffffffffffffffff161415801561217657508273ffffffffffffffffffffffffffffffffffffffff168473ffffffffffffffffffffffffffffffffffffffff16148061213757506121368484610f5a565b5b8061217557508273ffffffffffffffffffffffffffffffffffffffff1661215d836111d3565b73ffffffffffffffffffffffffffffffffffffffff16145b5b90509392505050565b5f5f5f90507a184f03e93ff9f4daa797ed6e38ed64bf6a1f01000000000000000083106121db577a184f03e93ff9f4daa797ed6e38ed64bf6a1f01000000000000000083816121d1576121d0612fe8565b5b0492506040810190505b6d04ee2d6d415b85acef81000000008310612218576d04ee2d6d415b85acef8100000000838161220e5761220d612fe8565b5b0492506020810190505b662386f26fc10000831061224757662386f26fc10000838161223d5761223c612fe8565b5b0492506010810190505b6305f5e1008310612270576305f5e100838161226657612265612fe8565b5b0492506008810190505b612710831061229557612710838161228b5761228a612fe8565b5b0492506004810190505b606483106122b857606483816122ae576122ad612fe8565b5b0492506002810190505b600a83106122c7576001810190505b80915050919050565b5f604051905090565b5f5ffd5b5f5ffd5b5f7fffffffff0000000000000000000000000000000000000000000000000000000082169050919050565b612315816122e1565b811461231f575f5ffd5b50565b5f813590506123308161230c565b92915050565b5f6020828403121561234b5761234a6122d9565b5b5f61235884828501612322565b91505092915050565b5f8115159050919050565b61237581612361565b82525050565b5f60208201905061238e5f83018461236c565b92915050565b5f81519050919050565b5f82825260208201905092915050565b8281835e5f83830152505050565b5f601f19601f8301169050919050565b5f6123d682612394565b6123e0818561239e565b93506123f08185602086016123ae565b6123f9816123bc565b840191505092915050565b5f6020820190508181035f83015261241c81846123cc565b905092915050565b5f819050919050565b61243681612424565b8114612440575f5ffd5b50565b5f813590506124518161242d565b92915050565b5f6020828403121561246c5761246b6122d9565b5b5f61247984828501612443565b91505092915050565b5f73ffffffffffffffffffffffffffffffffffffffff82169050919050565b5f6124ab82612482565b9050919050565b6124bb816124a1565b82525050565b5f6020820190506124d45f8301846124b2565b92915050565b6124e3816124a1565b81146124ed575f5ffd5b50565b5f813590506124fe816124da565b92915050565b5f5f6040838503121561251a576125196122d9565b5b5f612527858286016124f0565b925050602061253885828601612443565b9150509250929050565b5f5f5f60608486031215612559576125586122d9565b5b5f612566868287016124f0565b9350506020612577868287016124f0565b925050604061258886828701612443565b9150509250925092565b5f819050919050565b6125a481612592565b82525050565b6125b381612424565b82525050565b5f60c0820190508181035f8301526125d181896123cc565b905081810360208301526125e581886123cc565b90506125f4604083018761259b565b61260160608301866124b2565b61260e60808301856124b2565b61261b60a08301846125aa565b979650505050505050565b5f5ffd5b5f5ffd5b7f4e487b71000000000000000000000000000000000000000000000000000000005f52604160045260245ffd5b612664826123bc565b810181811067ffffffffffffffff821117156126835761268261262e565b5b80604052505050565b5f6126956122d0565b90506126a1828261265b565b919050565b5f67ffffffffffffffff8211156126c0576126bf61262e565b5b6126c9826123bc565b9050602081019050919050565b828183375f83830152505050565b5f6126f66126f1846126a6565b61268c565b9050828152602081018484840111156127125761271161262a565b5b61271d8482856126d6565b509392505050565b5f82601f83011261273957612738612626565b5b81356127498482602086016126e4565b91505092915050565b61275b81612592565b8114612765575f5ffd5b50565b5f8135905061277681612752565b92915050565b5f5f5f60608486031215612793576127926122d9565b5b5f84013567ffffffffffffffff8111156127b0576127af6122dd565b5b6127bc86828701612725565b935050602084013567ffffffffffffffff8111156127dd576127dc6122dd565b5b6127e986828701612725565b92505060406127fa86828701612768565b9150509250925092565b5f6020820190506128175f8301846125aa565b92915050565b5f60208284031215612832576128316122d9565b5b5f61283f848285016124f0565b91505092915050565b5f5f6040838503121561285e5761285d6122d9565b5b5f61286b85828601612443565b925050602061287c858286016124f0565b9150509250929050565b61288f81612361565b8114612899575f5ffd5b50565b5f813590506128aa81612886565b92915050565b5f5f604083850312156128c6576128c56122d9565b5b5f6128d3858286016124f0565b92505060206128e48582860161289c565b9150509250929050565b5f67ffffffffffffffff8211156129085761290761262e565b5b612911826123bc565b9050602081019050919050565b5f61293061292b846128ee565b61268c565b90508281526020810184848401111561294c5761294b61262a565b5b6129578482856126d6565b509392505050565b5f82601f83011261297357612972612626565b5b813561298384826020860161291e565b91505092915050565b5f5f5f5f608085870312156129a4576129a36122d9565b5b5f6129b1878288016124f0565b94505060206129c2878288016124f0565b93505060406129d387828801612443565b925050606085013567ffffffffffffffff8111156129f4576129f36122dd565b5b612a008782880161295f565b91505092959194509250565b5f5f60408385031215612a2257612a216122d9565b5b5f612a2f858286016124f0565b9250506020612a40858286016124f0565b9150509250929050565b7f4e487b71000000000000000000000000000000000000000000000000000000005f52602260045260245ffd5b5f6002820490506001821680612a8e57607f821691505b602082108103612aa157612aa0612a4a565b5b50919050565b5f606082019050612aba5f8301866124b2565b612ac760208301856125aa565b612ad460408301846124b2565b949350505050565b7f4e487b71000000000000000000000000000000000000000000000000000000005f52601160045260245ffd5b5f612b1382612424565b91507fffffffffffffffffffffffffffffffffffffffffffffffffffffffffffffffff8203612b4557612b44612adc565b5b600182019050919050565b5f819050815f5260205f209050919050565b5f6020601f8301049050919050565b5f82821b905092915050565b5f60088302612bac7fffffffffffffffffffffffffffffffffffffffffffffffffffffffffffffffff82612b71565b612bb68683612b71565b95508019841693508086168417925050509392505050565b5f819050919050565b5f612bf1612bec612be784612424565b612bce565b612424565b9050919050565b5f819050919050565b612c0a83612bd7565b612c1e612c1682612bf8565b848454612b7d565b825550505050565b5f5f905090565b612c35612c26565b612c40818484612c01565b505050565b5f5b82811015612c6657612c5b5f828401612c2d565b600181019050612c47565b505050565b601f821115612cb95782821115612cb857612c8581612b50565b612c8e83612b62565b612c9785612b62565b6020861015612ca4575f90505b808301612cb382840382612c45565b505050505b5b505050565b5f82821c905092915050565b5f612cd95f1984600802612cbe565b1980831691505092915050565b5f612cf18383612cca565b9150826002028217905092915050565b612d0a82612394565b67ffffffffffffffff811115612d2357612d2261262e565b5b612d2d8254612a77565b612d38828285612c6b565b5f60209050601f831160018114612d69575f8415612d57578287015190505b612d618582612ce6565b865550612dc8565b601f198416612d7786612b50565b5f5b82811015612d9e57848901518255600182019150602085019450602081019050612d79565b86831015612dbb5784890151612db7601f891682612cca565b8355505b6001600288020188555050505b505050505050565b5f6080820190508181035f830152612de881876123cc565b90508181036020830152612dfc81866123cc565b9050612e0b604083018561259b565b612e1860608301846125aa565b95945050505050565b7f4e6f74206f776e6572206f7220617070726f76656400000000000000000000005f82015250565b5f612e5560158361239e565b9150612e6082612e21565b602082019050919050565b5f6020820190508181035f830152612e8281612e49565b9050919050565b5f81905092915050565b5f612e9d82612394565b612ea78185612e89565b9350612eb78185602086016123ae565b80840191505092915050565b5f612ece8285612e93565b9150612eda8284612e93565b91508190509392505050565b5f81519050919050565b5f82825260208201905092915050565b5f612f0a82612ee6565b612f148185612ef0565b9350612f248185602086016123ae565b612f2d816123bc565b840191505092915050565b5f608082019050612f4b5f8301876124b2565b612f5860208301866124b2565b612f6560408301856125aa565b8181036060830152612f778184612f00565b905095945050505050565b5f81519050612f908161230c565b92915050565b5f60208284031215612fab57612faa6122d9565b5b5f612fb884828501612f82565b91505092915050565b5f604082019050612fd45f8301856124b2565b612fe160208301846125aa565b9392505050565b7f4e487b71000000000000000000000000000000000000000000000000000000005f52601260045260245ffdfea2646970667358221220047168578cb5e25e41b520a9c4b0e59e090745c81a00e6970e9418c69314c83564736f6c63430008210033","linkReferences":{}},"methodIdentifiers":{"approve(address,uint256)":"095ea7b3","artworks(uint256)":"4b602673","balanceOf(address)":"70a08231","getApproved(uint256)":"081812fc","getCreator(uint256)":"d48e638a","getOwner(uint256)":"c41a360a","isApprovedForAll(address,address)":"e985e9c5","name()":"06fdde03","nextTokenId()":"75794a3c","owner()":"8da5cb5b","ownerOf(uint256)":"6352211e","registerArtwork(string,string,bytes32)":"650b858e","renounceOwnership()":"715018a6","safeTransferFrom(address,address,uint256)":"42842e0e","safeTransferFrom(address,address,uint256,bytes)":"b88d4fde","setApprovalForAll(address,bool)":"a22cb465","supportsInterface(bytes4)":"01ffc9a7","symbol()":"95d89b41","tokenURI(uint256)":"c87b56dd","transferFrom(address,address,uint256)":"23b872dd","transferNFT(uint256,address)":"9036c050","transferOwnership(address)":"f2fde38b"},"id":47}